:100000000C9462000C948A000C948A000C948A0070
:100010000C948A000C948A000C948A000C948A0038
:100020000C948A000C948A000C948A000C948A0028
:100030000C948A000C948A000C948A000C948A0018
:100040000C94F1020C948A000C948A000C948A009F
:100050000C948A000C948A000C948A000C948A00F8
:100060000C948A000C948A000000000023002600F3
:10007000290000000000240027002A0000000000E2
:10008000250028002B0004040404040404040202D4
:100090000202020203030303030301020408102007
:1000A0004080010204081020010204081020000012
:1000B0000008000201000003040700000000000027
:1000C0000000650411241FBECFEFD8E0DEBFCDBF16
:1000D00011E0A0E0B1E0EAE5F9E002C005900D9280
:1000E000A033B107D9F721E0A0E3B1E001C01D9230
:1000F000A535B207E1F710E0C2E6D0E004C02197D1
:10010000FE010E94A504C136D107C9F70E943B0336
:100110000C94AB040C940000833081F028F48130FF
:1001200099F08230A9F008958730A9F08830C9F09D
:100130008430B1F4809180008F7D03C08091800075
:100140008F7780938000089584B58F7784BD08955C
:1001500084B58F7DFBCF8091B0008F778093B00006
:1001600008958091B0008F7DF9CF1F93CF93DF93D7
:10017000282F30E0F901E255FF4F8491F901E6564E
:10018000FF4FD491F901EA57FF4FC491CC23A9F056
:10019000162F81110E948C00EC2FF0E0EE0FFF1F54
:1001A000E458FF4FA591B4918FB7F894EC911111D9
:1001B00008C0D095DE23DC938FBFDF91CF911F91D4
:1001C0000895DE2BF8CFCF93DF9390E0FC01E65645
:1001D000FF4F24918A579F4FFC0184918823D1F0CF
:1001E00090E0880F991FFC01EE58FF4FA591B49144
:1001F000FC01E458FF4FC591D49161110EC09FB727
:10020000F8948C91E22FE0958E238C932881E22341
:10021000E8839FBFDF91CF9108958FB7F894EC9159
:10022000E22BEC938FBFF6CF3FB7F8948091390162
:1002300090913A01A0913B01B0913C0126B5A89B59
:1002400005C02F3F19F00196A11DB11D3FBFBA2F68
:10025000A92F982F8827BC01CD01620F711D811D28
:10026000911D42E0660F771F881F991F4A95D1F7AD
:1002700008958F929F92AF92BF92CF92DF92EF92AA
:10028000FF924B015C010E9414016B017C010E94F2
:1002900014016C197D098E099F09683E7340810520
:1002A0009105A8F321E0821A9108A108B10888EE0F
:1002B000C80E83E0D81EE11CF11C81149104A10436
:1002C000B10429F7FF90EF90DF90CF90BF90AF90EF
:1002D0009F908F900895AF92BF92CF92DF92EF924E
:1002E000FF920F931F93CF93DF936C017B018B01E0
:1002F000040F151FEB015E01AE18BF08C017D10730
:1003000059F06991D601ED91FC910190F081E02DB9
:10031000C6010995892B79F7C501DF91CF911F910E
:100320000F91FF90EF90DF90CF90BF90AF90089526
:10033000089590E080E00895FC0101900020E9F725
:100340003197AF01481B590BBC018DE391E00C9430
:100350006B01CF93DF93EC0160E08E810E94B500CA
:1003600061E08E810E94B50060E08E810E94B50040
:100370008BE891E00197F1F7DF91CF910895CF924B
:10038000DF92EF92FF920F931F93CF93DF936C0155
:100390007C0187E0E80EF11CD0E0C0E0062F10E001
:1003A000B8010C2E02C0759567950A94E2F761704A
:1003B000F70181917F010E94B5002196C430D105DB
:1003C00079F7C601DF91CF911F910F91FF90EF90C8
:1003D000DF90CF900C94A901CF92DF92EF92FF9221
:1003E0000F931F93CF93DF93EC01F62E642F8C8134
:1003F0000E94B5008D818F3F19F060E00E94B5002A
:100400000F2D10E08F8584FF25C06E0187E0C80E98
:10041000D11CF12CE12CB8010E2C02C0759567950A
:100420000A94E2F76170F60181916F010E94B500B4
:10043000FFEFEF1AFF0A88E0E816F10461F7CE013A
:10044000DF91CF911F910F91FF90EF90DF90CF90B0
:100450000C94A901B80184E0759567958A95E1F738
:10046000CE010E94BF016F2DCE01DF91CF911F9170
:100470000F91FF90EF90DF90CF900C94BF0140E080
:10048000682F8DE391E00C94EC01CF93DF938230E1
:1004900029F490914C01986090934C018093500105
:1004A0001092510180E48093520180E180935301C6
:1004B00080E58093540161E0809141010E94E30056
:1004C000809142018F3F19F061E00E94E30061E0FA
:1004D000809143010E94E300CDE3D1E09E012D53C2
:1004E000314080914C0184FD0BC084E090E0219666
:1004F0002817390744F461E08E810E94E300EECFB3
:1005000088E090E0F4CF8BE39DE00197F1F760E0A5
:10051000809141010E94B50060E0809143010E94FA
:10052000B500809142018F3F19F060E00E94B50054
:1005300080914C0184FD39C063E08DE391E00E941D
:10054000BF01CBE4D6E4CE010197F1F763E08DE380
:1005500091E00E94BF012197F1F763E08DE391E004
:100560000E94BF0183E592E00197F1F762E08DE31D
:1005700091E00E94BF0180914C0180620E943F0285
:1005800084E080934D018CE00E943F0281E00E9454
:100590003F028BE39FE10197F1F782E080934E01E8
:1005A00086E0DF91CF910C943F0280620E943F026F
:1005B0008BE496E40197F1F780914C0180620E94F0
:1005C0003F0283E592E00197F1F780914C01806250
:1005D0000E943F02D0CF41E00E94EC0181E090E018
:1005E00008951F920F920FB60F9211242F933F93ED
:1005F0008F939F93AF93BF93809135019091360174
:10060000A0913701B09138013091340123E0230FDC
:100610002D3758F50196A11DB11D2093340180930B
:10062000350190933601A0933701B0933801809142
:10063000390190913A01A0913B01B0913C010196A2
:10064000A11DB11D8093390190933A01A0933B0104
:10065000B0933C01BF91AF919F918F913F912F91AA
:100660000F900FBE0F901F90189526E8230F02964B
:10067000A11DB11DD2CFCF93DF93CDB7DEB7A19728
:100680000FB6F894DEBF0FBECDBF789484B58260FC
:1006900084BD84B5816084BD85B5826085BD85B526
:1006A000816085BD80916E00816080936E001092A4
:1006B000810080918100826080938100809181001F
:1006C00081608093810080918000816080938000B0
:1006D0008091B10084608093B1008091B00081600E
:1006E0008093B00080917A00846080937A0080913A
:1006F0007A00826080937A0080917A008160809392
:100700007A0080917A00806880937A001092C1000C
:1007100060E083E10E94E30082E00E9445028CE0F9
:1007200091E00E949C01E0915001E23008F0B2C0DB
:10073000E150F0E0E35CFE4F848980680E943F0254
:1007400083E191E00E949C0160ED77E080E090E021
:100750000E94390181E00E943F028BE39FE10197F3
:10076000F1F791EC292E90E0392E2DEA822E20E02F
:10077000922E3AE0432E512C612C712C40E0A42E95
:1007800040E0B42EF1018491F4011491E9E9F0E024
:100790000491002309F480C081110E948C00E02F95
:1007A000F0E0EE0FFF1FE859FF4FA591B4918C9137
:1007B000182391E080E009F490E090933201809357
:1007C0003301E1E0809150018111E0E0E195F0E03A
:1007D000E35CFE4F848980680E943F0281E291E0E1
:1007E0000E949C018091320190913301019709F0A0
:1007F0004AC000913001109131010F5F1F4F1093DB
:10080000310100933001E1E0809150018111E0E07D
:10081000E195F0E0E35CFE4F8489825F80680E948E
:100820003F026801110FEE08FF08F7FE38C041E0F3
:100830006DE28DE391E00E94EC0122273327A901AC
:100840002C193D094E095F0919A2CE0181967C0140
:10085000CA01B901A30192010E948304605DF701FE
:1008600062937F01211531054105510589F7E11496
:10087000F10419F0C7010E949C0168EE73E080E06A
:1008800090E00E943901A114B10409F47BCF0E94C9
:10089000000078CFE1E04DCF90E080E08ECFA7015F
:1008A000960119A2CE0181967C01CA01B901A3016A
:1008B00092010E948304605DF70162937F0121151C
:1008C00031054105510589F7D2CFEDE3F1E01382FF
:1008D000128284E091E0918380838CE084838FEFA7
:1008E00085838BE0868385E0878384E0808783E04F
:1008F000818782E08287138614861586168617867E
:1009000081E00C944502A1E21A2EAA1BBB1BFD013B
:100910000DC0AA1FBB1FEE1FFF1FA217B307E407DE
:10092000F50720F0A21BB30BE40BF50B661F771F36
:10093000881F991F1A9469F7609570958095909516
:100940009B01AC01BD01CF010895EE0FFF1F059083
:0A095000F491E02D0994F894FFCF14
:10095A0000000000EB026B01990198016B6F6B6953
:10096A006C61005355524520547275737420473692
:10097A00004E6F2E6F6620507265737365733A006E
:00000001FF
